{
  "transactions": [
    {
      "hash": "0x169cdae6fea941fb1bd17654aecde7a92a038a2fadea186563fbab30da8f3e6d",
      "transactionType": "CALL",
      "contractName": null,
      "contractAddress": "0x4a557d02515a76c3fcab7c6b69d6bf8d574d52e2",
      "function": "applyChainUpdates((uint64,bool,bytes,bytes,(bool,uint128,uint128),(bool,uint128,uint128))[])",
      "arguments": [
        "[(6898391096552792247, true, 0x0000000000000000000000000624a721fc4edf6214748080299bc06781a2b583, 0x0000000000000000000000006cc41f957b578e670812faea2e21610b3fbe1c66, (false, 0, 0), (false, 0, 0))]"
      ],
      "transaction": {
        "from": "0x7b32df263625bfcc9edf743a382b81c2e1a567ec",
        "to": "0x4a557d02515a76c3fcab7c6b69d6bf8d574d52e2",
        "gas": "0x525dc",
        "value": "0x0",
        "input": "0xdb6327dc0000000000000000000000000000000000000000000000000000000000000020000000000000000000000000000000000000000000000000000000000000000100000000000000000000000000000000000000000000000000000000000000200000000000000000000000000000000000000000000000005fbc02272fbf20b700000000000000000000000000000000000000000000000000000000000000010000000000000000000000000000000000000000000000000000000000000140000000000000000000000000000000000000000000000000000000000000018000000000000000000000000000000000000000000000000000000000000000000000000000000000000000000000000000000000000000000000000000000000000000000000000000000000000000000000000000000000000000000000000000000000000000000000000000000000000000000000000000000000000000000000000000000000000000000000000000000000000000000000000000000000000000000000000000000000000000000000000000000000000000000000000000000000000000000000000000000000000000000000000000000000000000200000000000000000000000000624a721fc4edf6214748080299bc06781a2b58300000000000000000000000000000000000000000000000000000000000000200000000000000000000000006cc41f957b578e670812faea2e21610b3fbe1c66",
        "nonce": "0xa2",
        "chainId": "0xaa36a7"
      },
      "additionalContracts": [],
      "isFixedGasLimit": false
    }
  ],
  "receipts": [
    {
      "status": "0x1",
      "cumulativeGasUsed": "0xdaf250",
      "logs": [
        {
          "address": "0x4a557d02515a76c3fcab7c6b69d6bf8d574d52e2",
          "topics": [
            "0x8d340f17e19058004c20453540862a9c62778504476f6756755cb33bcd6c38c2"
          ],
          "data": "0x0000000000000000000000000000000000000000000000005fbc02272fbf20b7000000000000000000000000000000000000000000000000000000000000010000000000000000000000000000000000000000000000000000000000000000000000000000000000000000000000000000000000000000000000000000000000000000000000000000000000000000000000000000000000000000000000000000000000000000000000000000000000000000000000000000000000000000000000000000000000000000000000000000000000000000000000000000000000000000000000000000000000000000000000000000000000000000000000000000000000000000000000000000000000000000000000000000000000000000200000000000000000000000006cc41f957b578e670812faea2e21610b3fbe1c66",
          "blockHash": "0xc4cf81ca668de4be79c970c4a320a0b09b52c2b82e8eaadf99ed2741149e6681",
          "blockNumber": "0x887009",
          "blockTimestamp": "0x68964ac8",
          "transactionHash": "0x169cdae6fea941fb1bd17654aecde7a92a038a2fadea186563fbab30da8f3e6d",
          "transactionIndex": "0x6b",
          "logIndex": "0x94",
          "removed": false
        }
      ],
      "logsBloom": "0x0000000000000040000000000000000000000000000000000000000000000000000000000000000000000000000000000000000000000000000c000000000000000000000000000000000000000000000000000000000000000000000000000000000000000000000000000000000000000000000000000000000000000000000000000000000000000000000000000000000000000000000000000000000000000000000000000000000000000000000000000000000000000000000000000000000000000000000000000000000000000000000000000000000000000000000000000000008000000000000000000000000000000000000100000000080000",
      "type": "0x2",
      "transactionHash": "0x169cdae6fea941fb1bd17654aecde7a92a038a2fadea186563fbab30da8f3e6d",
      "transactionIndex": "0x6b",
      "blockHash": "0xc4cf81ca668de4be79c970c4a320a0b09b52c2b82e8eaadf99ed2741149e6681",
      "blockNumber": "0x887009",
      "gasUsed": "0x3ba1c",
      "effectiveGasPrice": "0xfdea8",
      "from": "0x7b32df263625bfcc9edf743a382b81c2e1a567ec",
      "to": "0x4a557d02515a76c3fcab7c6b69d6bf8d574d52e2",
      "contractAddress": null
    }
  ],
  "libraries": [],
  "pending": [],
  "returns": {},
  "timestamp": 1754680009837,
  "chain": 11155111,
  "commit": "3b5a8db"
}