{
  "transactions": [
    {
      "hash": "0x7e3f820eaf75aa100a7e0ccf3ef2bf4599b0452d0690f5d0bf8746ef38e30cfa",
      "transactionType": "CALL",
      "contractName": null,
      "contractAddress": "0x186c5d21bcb4ac1024481d6cae3fe1db89af838e",
      "function": "applyChainUpdates((uint64,bool,bytes,bytes,(bool,uint128,uint128),(bool,uint128,uint128))[])",
      "arguments": [
        "[(6898391096552792247, true, 0x000000000000000000000000b7bc6bcd8516f98c6bc8b0a38164f7ea67c72e3d, 0x000000000000000000000000bfb314e196a1df9e57954b64ab63004cd2a828cb, (false, 0, 0), (false, 0, 0))]"
      ],
      "transaction": {
        "from": "0x7b32df263625bfcc9edf743a382b81c2e1a567ec",
        "to": "0x186c5d21bcb4ac1024481d6cae3fe1db89af838e",
        "gas": "0x525cc",
        "value": "0x0",
        "input": "0xdb6327dc0000000000000000000000000000000000000000000000000000000000000020000000000000000000000000000000000000000000000000000000000000000100000000000000000000000000000000000000000000000000000000000000200000000000000000000000000000000000000000000000005fbc02272fbf20b70000000000000000000000000000000000000000000000000000000000000001000000000000000000000000000000000000000000000000000000000000014000000000000000000000000000000000000000000000000000000000000001800000000000000000000000000000000000000000000000000000000000000000000000000000000000000000000000000000000000000000000000000000000000000000000000000000000000000000000000000000000000000000000000000000000000000000000000000000000000000000000000000000000000000000000000000000000000000000000000000000000000000000000000000000000000000000000000000000000000000000000000000000000000000000000000000000000000000000000000000000000000000000000000000000000000000020000000000000000000000000b7bc6bcd8516f98c6bc8b0a38164f7ea67c72e3d0000000000000000000000000000000000000000000000000000000000000020000000000000000000000000bfb314e196a1df9e57954b64ab63004cd2a828cb",
        "nonce": "0x98",
        "chainId": "0xaa36a7"
      },
      "additionalContracts": [],
      "isFixedGasLimit": false
    }
  ],
  "receipts": [
    {
      "status": "0x1",
      "cumulativeGasUsed": "0x11fd9fa",
      "logs": [
        {
          "address": "0x186c5d21bcb4ac1024481d6cae3fe1db89af838e",
          "topics": [
            "0x8d340f17e19058004c20453540862a9c62778504476f6756755cb33bcd6c38c2"
          ],
          "data": "0x0000000000000000000000000000000000000000000000005fbc02272fbf20b700000000000000000000000000000000000000000000000000000000000001000000000000000000000000000000000000000000000000000000000000000000000000000000000000000000000000000000000000000000000000000000000000000000000000000000000000000000000000000000000000000000000000000000000000000000000000000000000000000000000000000000000000000000000000000000000000000000000000000000000000000000000000000000000000000000000000000000000000000000000000000000000000000000000000000000000000000000000000000000000000000000000000000000000000000020000000000000000000000000bfb314e196a1df9e57954b64ab63004cd2a828cb",
          "blockHash": "0x9ec10cc7f119e15d6ae5fee281368994bf9559c0c324396d2f3d5077811099e7",
          "blockNumber": "0x886f96",
          "blockTimestamp": "0x68964564",
          "transactionHash": "0x7e3f820eaf75aa100a7e0ccf3ef2bf4599b0452d0690f5d0bf8746ef38e30cfa",
          "transactionIndex": "0x8c",
          "logIndex": "0xd1",
          "removed": false
        }
      ],
      "logsBloom": "0x00000000000000400000000000000000000000000002000000000000000100000000000000000000000000000000000000000000000000000004000000000000000000000000000000000000000000000000000000000000000000000000000000000000000000000000000000000000000000000000000000000000000000000000000000000000000000000000000000080000000000000000000000000000000000000000000000000000000000000000000000000000000000000000000000000000000000000000000000000000000000000000000000000000000000000000000000000000000000000000000000000000000000000100000000000000",
      "type": "0x2",
      "transactionHash": "0x7e3f820eaf75aa100a7e0ccf3ef2bf4599b0452d0690f5d0bf8746ef38e30cfa",
      "transactionIndex": "0x8c",
      "blockHash": "0x9ec10cc7f119e15d6ae5fee281368994bf9559c0c324396d2f3d5077811099e7",
      "blockNumber": "0x886f96",
      "gasUsed": "0x3ba10",
      "effectiveGasPrice": "0x12d226",
      "from": "0x7b32df263625bfcc9edf743a382b81c2e1a567ec",
      "to": "0x186c5d21bcb4ac1024481d6cae3fe1db89af838e",
      "contractAddress": null
    }
  ],
  "libraries": [],
  "pending": [],
  "returns": {},
  "timestamp": 1754678626713,
  "chain": 11155111,
  "commit": "5a3c7f9"
}